:020000040000FA
:100000000C947B000C94A3000C94A3000C949D19F9
:100010000C949D190C949D190C94A3000C94A300AE
:100020000C94A3000C94A3000C94A3000C94A300C4
:100030000C94A3000C94A3000C94A3000C94A300B4
:100040000C94FB180C94A3000C946B190C94451998
:100050000C94A3000C94A3000C94A3000C94A30094
:100060000C94A3000C94A3007C3C3E5E2B3D3F2FE0
:100070005B5D3B2C2A225C00005EBCE2613FDD83BD
:10008000C29C7E20A3FD1F41009D23BE46DB65F878
:100090008C11AF32CA57E974000000002400270019
:1000A0002A0000000008000201000003040700000D
:1000B00000000000000000000000230026002900CE
:1000C00000000000250028002B00040404040404A0
:1000D00004040202020202020303030303030102F7
:1000E00004081020408001020408102001020408C6
:1000F0001020411A492411241FBECFEFD8E0DEBFE3
:10010000CDBF26E0ACE2B2E001C01D92A63AB20734
:10011000E1F712E0A0E0B1E0EAE9F3E502C0059002
:100120000D92AC32B107D9F710E0CAE7D0E004C0B5
:100130002197FE010E947C27C937D107C9F70E9489
:100140003B1C0C94C0290C94000090E0FC01EE557F
:10015000FF4F2491FC01E252FF4F3491FC01E65322
:10016000FF4FE491EE23C9F0222339F0233001F14F
:10017000A8F4213019F1223029F1F0E0EE0FFF1F31
:10018000E054FF4FA591B4918FB7F894EC916111B1
:1001900026C030953E233C938FBF08952730A9F0A9
:1001A0002830C9F0243049F7809180008F7D03C04A
:1001B000809180008F7780938000DFCF84B58F7728
:1001C00084BDDBCF84B58F7DFBCF8091B0008F776E
:1001D0008093B000D2CF8091B0008F7DF9CF3E2BBD
:1001E000DACFCF93DF9390E0FC01E252FF4F2491EE
:1001F00086539F4FFC0184918823D1F090E0880FB3
:10020000991FFC01E856FF4FA591B491FC01E05401
:10021000FF4FC591D49161110EC09FB7F8948C9196
:10022000E22FE0958E238C932881E223E8839FBF01
:10023000DF91CF9108958FB7F894EC91E22BEC9376
:100240008FBFF6CF3FB7F89480917D0290917E02E8
:10025000A0917F02B091800226B5A89B05C02F3FD8
:1002600019F00196A11DB11D3FBFBA2FA92F982FDC
:100270008827BC01CD01620F711D811D911D42E0D7
:10028000660F771F881F991F4A95D1F708952FB7DA
:10029000F8946091790270917A0280917B0290913A
:1002A0007C022FBF0895AF92BF92CF92DF92EF9260
:1002B000FF920F931F93CF93DF936C017B018B0110
:1002C000040F151FEB015E01AE18BF08C017D10760
:1002D00059F06991D601ED91FC910190F081E02DEA
:1002E000C6010995892B79F7C501DF91CF911F913F
:1002F0000F91FF90EF90DF90CF90BF90AF90089557
:10030000FC01538D448D252F30E0842F90E0821B1B
:10031000930B541710F0CF96089501970895FC01A0
:10032000918D828D981761F0A28DAE0FBF2FB11DF8
:100330005D968C91928D9F5F9F73928F90E0089550
:100340008FEF9FEF0895FC01918D828D981731F00A
:10035000828DE80FF11D858D90E008958FEF9FEF5E
:100360000895FC01918D228D892F90E0805C9F4F34
:10037000821B91098F739927089583E894E00E9466
:10038000B10121E0892B09F420E0822F089580E05B
:1003900090E0892B29F00E94BD0181110C9400008E
:1003A0000895FC01A48DA80FB92FB11DA35ABF4F0A
:1003B0002C91848D90E001968F739927848FA68964
:1003C000B7892C93A089B1898C91837080648C93B8
:1003D000938D848D981306C00288F389E02D808167
:1003E0008F7D80830895EF92FF920F931F93CF9399
:1003F000DF93EC0181E0888F9B8D8C8D98131AC060
:10040000E889F989808185FF15C09FB7F894EE8946
:10041000FF896083E889F9898081837080648083A3
:100420009FBF81E090E0DF91CF911F910F91FF90EE
:10043000EF900895F62E0B8D10E00F5F1F4F0F7396
:100440001127E02E8C8D8E110CC00FB607FCFACF51
:10045000E889F989808185FFF5CFCE010E94D1011D
:10046000F1CFEB8DEC0FFD2FF11DE35AFF4FF08222
:100470009FB7F8940B8FEA89FB8980818062CFCF88
:10048000CF93DF93EC01888D8823B9F0AA89BB89CB
:10049000E889F9898C9185FD03C0808186FD0DC0B6
:1004A0000FB607FCF7CF8C9185FFF2CF808185FFD7
:1004B000EDCFCE010E94D101E9CFDF91CF91089518
:1004C00020917502309176022817390771F49091C6
:1004D000730280917402981741F0E0917302F0E08A
:1004E000ED5CFD4F808190E008958FEF9FEF0895C0
:1004F0000895EF92FF920F931F93CF93DF93DC0148
:100500005C96ED90FC905D97E114F10479F481E044
:1005100090E013969C938E93129790E080E0DF9189
:10052000CF911F910F91FF90EF9008955196ED910B
:10053000FC91529750968C915097982F90950FB7A9
:100540005E962C915E97122F127021FD6095F894A3
:100550002081112319F1282B2083E7012197F1F73E
:1005600028E0462F50E0308160FF1AC0382B3083DE
:10057000E7012197F1F7BA0175956795215089F741
:10058000112381F08081892380830FBF5C968D9138
:100590009C910197F1F781E090E0C1CF2923DCCF56
:1005A0003923E5CF9081892BEFCF209175023091CF
:1005B00076022817390761F4809174022091730242
:1005C00090E0805C9F4F821B91098F73992708955B
:1005D00090E080E00895209175023091760228170E
:1005E0003907B9F49091730280917402981789F0D9
:1005F000E0917302F0E0ED5CFD4F80812091730289
:1006000030E02F5F3F4F2F7333272093730290E02A
:1006100008958FEF9FEF089590E080E00895CF93C5
:10062000DF93EC018A859B85AC85BD858E839F8396
:10063000A887B9870E9447016A837B838C839D8347
:1006400081E089838883DF91CF910895CF93DF93F1
:10065000EC018E819F81A885B9858A839B83AC83B9
:10066000BD830E9447016A877B878C879D8781E0D5
:1006700089838883DF91CF910895DC0180E0615008
:1006800090F09D919827E92FEF70F0E0E858FF4F28
:100690002491E92FE295EF70F0E0E857FF4FE491E5
:1006A000822F8E27ECCF0895DC012C911196ED91CD
:1006B000FC91F8948181822B81839281322F309535
:1006C0009323928387E090E00197F1F78181832360
:1006D000818383E290E00197F1F790817894EFECC9
:1006E000F0E03197F1F7922381E009F480E008957A
:1006F000FC0190810180F281E02D292F209560FF7F
:1007000014C0F8948281822382838181892B818322
:10071000A3E2B0E01197F1F78281982B928378944D
:1007200087ED90E00197F1F70895F8948281822394
:1007300082838181892B8183AFEFB0E01197F1F73C
:100740008281982B928378948FE090E0EBCFDF92B8
:10075000EF92FF920F931F93CF93DF93EC01D62E6E
:10076000E42E08E010E0FF24F39461E08D2D8F214A
:1007700009F460E0CE010E947803FF0C01501109DA
:10078000A1F7E11010C0F894E981FA819181888184
:10079000809589238183E981FA819281888180957E
:1007A000892382837894DF91CF911F910F91FF90DD
:1007B000EF90DF900895EF92FF920F931F93CF93E6
:1007C000DF938C017B0140E065E50E94A703E70110
:1007D00088E0E80EF11C699140E0C8010E94A7037F
:1007E000CE15DF05C1F7DF91CF911F910F91FF90DB
:1007F000EF900895FC0190810180F281E02DF89442
:100800008181292F20958223818378943DE743E0DD
:1008100050E0315029F1DA011197F1F780818923F5
:10082000C1F3F8948281822382838181892B818321
:100830007894ABE7B7E01197F1F7F89481818223C0
:100840008183A3E1B1E01197F1F78081982381E0E2
:1008500009F080E07894E3E6F6E03197F1F7089547
:1008600080E008958F929F92AF92BF92CF92DF92D5
:10087000EF92FF92CF93DF93EC0189859A850E94D6
:10088000FA0340E06CEC89859A850E94A7034881B1
:1008900064E489859A850E94A7038C818823E1F00E
:1008A000EB818D81882319F18881811120C00E94FC
:1008B00047016B017C0189859A850E945403813030
:1008C00059F00E9447016C197D098E099F096E3EFF
:1008D00072408105910578F3DF91CF91FF90EF9001
:1008E000DF90CF90BF90AF909F908F900895E95088
:1008F0008EEE92E0E33038F4F0E0EE0FFF1FE65F9B
:10090000FE4F808191816C01990FEE08FF0889816B
:10091000882321F060E08A810E94A5000E942201C4
:100920004B015C01C114D104E104F104B9F00E944F
:100930002201681979098A099B09683E734081057B
:10094000910580F381E0C81AD108E108F10828EE8A
:10095000820E23E0921EA11CB11CE4CF8981882362
:1009600009F4BACF61E08A81DF91CF91FF90EF90D7
:10097000DF90CF90BF90AF909F908F900C94A50088
:100980004F925F926F927F928F929F92AF92BF929F
:10099000CF92DF92EF92FF920F931F93CF93DF934B
:1009A0008C017B01EA01FC01818592850E94FA039A
:1009B0008823D9F1B701F801818592850E94DB0374
:1009C00040E06EEBF801818592850E94A7036E01DD
:1009D0005E01F9E0AF0EB11C7E01F80181849284C2
:1009E00088E0682E712C512C44244394C4010E9449
:1009F000540381115428440CF1E06F1A7108B1F7C7
:100A0000F70151927F01AE16BF0639F7F8018185D3
:100A100092850E94FA03813041F4F60181916F01C1
:100A2000811105C0EE15FF05C1F790E008C068E030
:100A3000CE010E943D0391E028852813F6CF892F2F
:100A4000DF91CF911F910F91FF90EF90DF90CF90AA
:100A5000BF90AF909F908F907F906F905F904F90DE
:100A600008958FB7F89480912D028FBF089561E0AB
:100A7000FC0184810E94A50080912C0281111092BA
:100A80002C0208958EBD00000DB407FEFDCF8EB57B
:100A900008958FEF0C9442050F931F93CF93DF932C
:100AA000EC010E9447018B010E9449058F3F69F0CC
:100AB0000E944701601B710B6C177D07A8F380E053
:100AC000DF91CF911F910F91089581E0F9CF8CBDF7
:100AD0009DBD0895CF93DF93EC0180912C0281118D
:100AE00009C081E080932C0280912005909121051E
:100AF0000E94670560E08C81DF91CF910C94A50086
:100B00008F929F92AF92BF92FF920F931F93CF93BA
:100B1000DF93EC01F62E49015A018E81882389F07A
:100B20008F8198859C012F5F3F4F38872F838230BC
:100B3000924018F40E944905F3CFCE010E94370578
:100B40001E82CE010E946A058CE291E00E944C0553
:100B50008F2D80640E94420508E110E0D501C40198
:100B6000002E04C0B695A795979587950A94D2F75D
:100B70000E94420508501109083F8FEF180771F7CE
:100B800085E9FF2021F028E087E8F2128FEF0E942C
:100B9000420510E00E9449058A8787FF04C01F3F75
:100BA00011F01F5FF7CFDF91CF911F910F91FF9051
:100BB000BF90AF909F908F900895AF92BF92CF92C9
:100BC000DF92EF92FF920F931F93CF93DF93EC018D
:100BD0006901C801820F931F8130924050F58E81C8
:100BE000882379F088819981AA81BB818417950730
:100BF000A607B70731F48F819885C816D90608F083
:100C000042C0488359836A837B838B85833039F064
:100C100089E0440F551F661F771F8A95D1F79A0107
:100C2000AB0161E1CE010E948005882389F083E059
:100C30008D83CE010E94370580E0DF91CF911F9117
:100C40000F91FF90EF90DF90CF90BF90AF900895FD
:100C50000E9447015B010E9449058A878F3F69F422
:100C60000E9447016A197B096D327140A0F38FE041
:100C70008D83CE010E943705DCCF8E3F89F4188624
:100C80001F8281E08E838F8198858C159D0550F49D
:100C90000E9449058F819885019698878F83F3CFAD
:100CA0008DE0E6CF6701E00EF11E0E944905F601D6
:100CB00081936F01EE15FF05C1F78F819885080FAD
:100CC000191F18870F838985882319F00115124091
:100CD000A0F08E81882389F08F8198859C012F5FF9
:100CE0003F4F38872F838230924018F40E94490585
:100CF000F3CFCE010E9437051E8281E09ECFCF92B6
:100D0000DF92EF92FF920F93CF93DF93EC01690193
:100D100082E1411551056105710599F08B8583309C
:100D200039F089E0440F551F661F771F8A95D1F768
:100D30009A01AB0168E1CE010E948005882319F079
:100D400084E08D832DC08EEF0E94420576018EEFE8
:100D5000D81AF70181917F010E944205EC14FD042D
:100D6000C1F78FEF0E9442058FEF0E9442050E945B
:100D700049058A878F71853071F4011116C0CE0143
:100D80000E94370581E0DF91CF910F91FF90EF90A6
:100D9000DF90CF90089581E18D83CE010E943705C9
:100DA000CE010E94370580E0EECF88E592E00E94F8
:100DB0004C05811102C085E1C4CF20E030E0A901DB
:100DC0006DE0CE010E948005882311F084E1B9CF47
:100DD0000E9449058111FACFD2CF0F9340912F0283
:100DE00050913002609131027091320241155105EB
:100DF0006105710599F0082F23E832E080918102A6
:100E0000909182020E947F06882349F010922F025F
:100E100010923002109231021092320281E00F9152
:100E200008950F93CF93C82F80912E02811105C092
:100E3000C1E08C2FCF910F91089540910001509106
:100E4000010160910201709103010C2F23E832E04F
:100E500080918102909182020E947F06811102C0DE
:100E6000C0E0E7CFCC2321F381E00E94ED06882388
:100E7000B9F310922E02DDCF8F929F92AF92BF9264
:100E8000EF92FF920F931F93CF934B015C01C42FFE
:100E90008091000190910101A0910201B0910301A4
:100EA00088159905AA05BB0551F181E00E9411073B
:100EB00081110BC080E0CF911F910F91FF90EF90B7
:100EC000BF90AF909F908F90089583E8E82E82E0C6
:100ED000F82E00E012E030E020E0B501A40180919E
:100EE0008102909182020E94DD05882319F380928D
:100EF000000190920101A0920201B0920301409181
:100F00002E024C2B40932E0281E0D5CFCF93DF935E
:100F1000EC016E857F858889998941E00E943C07B4
:100F2000882351F08A8920E2829FC00111248D57C5
:100F30009D4FDF91CF91089590E080E0FACF8F929E
:100F40009F92AF92BF92CF92DF92EF92FF92CF9398
:100F500022E235E03093820220938102882309F453
:100F60006DC040E060E070E0CB010E943C07811161
:100F70000BC080E0CF91FF90EF90DF90CF90BF90BB
:100F8000AF909F908F900895809141048F7789F75B
:100F900080914D0490914E04A0914F04B091500463
:100FA00084369105A105B10520F3C0904904D09085
:100FB0004A04E0904B04F0904C04C114D104E104C5
:100FC000F104B9F240E0C701B6010E943C07882352
:100FD00081F280918E0290918F028115924049F6A4
:100FE000A0919302AA2329F260919102709192023A
:100FF0006115710509F4BDCF20919002222309F4F7
:10100000B8CFA09340052093320590E080E030E017
:10101000E1E0F0E0C82FAF01082E02C0440F551FD9
:101020000A94E2F72417350769F041E0480F01966A
:101030008930910579F740933B059BCFC12CD12C8A
:101040007601C0CF80933B052091990230919A029E
:1010500050E040E02115310541F42091A702309184
:10106000A8024091A9025091AA022093330530931F
:101070003405409335055093360546015701860ED9
:10108000971EA11CB11C8092410590924205A0922E
:101090004305B0924405E0919402F0919502F093DB
:1010A0004705E0934605B0E00E94CD25DC01CB0169
:1010B000880D991DAA1DBB1D809348059093490575
:1010C000A0934A05B0934B0525E0EE0FFF1F2A952C
:1010D000E1F7E150FE4FEF2FFF27E6958E0F9F1FA0
:1010E000A11DB11D80933C0590933D05A0933E0545
:1010F000B0933F058090960290909702B12CA12C5E
:101100008114910441F48090A3029090A402A090D5
:10111000A502B090A602C81AD90AEA0AFB0AC80CAE
:10112000D91CEA1CFB1C04C0F694E794D794C7941E
:10113000CA95D2F7C0923705D0923805E0923905AA
:10114000F0923A0585EFC8168FE0D806E104F10465
:1011500028F48CE08093450581E00CCF80E125EFF9
:10116000C2162FEFD206E104F104A0F38091AF0282
:101170009091B002A091B102B091B2028093480563
:1011800090934905A0934A05B0934B0580E2E2CFC6
:101190004F925F926F927F928F929F92AF92BF9287
:1011A000CF92DF92EF92FF920F931F93CF93DF9333
:1011B000EC01423051056105710590F480E0DF914A
:1011C000CF911F910F91FF90EF90DF90CF90BF9044
:1011D000AF909F908F907F906F905F904F90089509
:1011E00089859A85AB85BC850196A11DB11D8417A3
:1011F0009507A607B70710F3CB88DC88ED88FE8833
:101200008F89803109F042C0BB27A72F962F852FE9
:10121000480159012A013B01C80ED91EEA1EFB1ED6
:101220008091000190910101A0910201B091030110
:10123000C816D906EA06FB0699F58F898031C1F5F3
:10124000B301A201552766277727440F551F4D5735
:101250005D4FFA019182808280912E02816080939D
:101260002E028A89823080F08D819E81AF81B8857F
:101270008C0D9D1DAE1DBF1D80932F0290933002DB
:10128000A0933102B093320281E099CFDB01CA0111
:10129000E7E0B695A79597958795EA95D1F7B8CFEA
:1012A00040E0C701B6010E943C078111C6CF86CF3E
:1012B000B301A2014F77552766277727440F551FA3
:1012C000440F551F4D575D4FFA0180829182A282D3
:1012D000B382C2CF8F929F92AF92BF92CF92DF9292
:1012E000EF92FF920F931F93CF93DF93FC018185C1
:1012F0009285A385B4850196A11DB11D841795071C
:10130000A607B70770F480E0DF91CF911F910F918E
:10131000FF90EF90DF90CF90BF90AF909F908F9015
:10132000089583889488A588B6888789803189F54F
:10133000BB27A72F962F852FE9016A017B018F011B
:10134000BC01CD01680D791D8A1D9B1D8090000197
:1013500090900101A0900201B090030186169706BB
:10136000A806B90601F5F8018789803111F5DD2459
:10137000EE24FF24F601EE0FFF1FED57FD4F808195
:101380009181B0E0A0E088839983AA83BB8381E048
:10139000BBCFDB01CA01C7E0B695A79597958795A6
:1013A000CA95D1F7C9CF40E00E943C078111DBCF3D
:1013B000AACFE894C7F8DD24EE24FF24F601EE0F4F
:1013C000FF1FEE0FFF1FED57FD4F80819181A2811E
:1013D000B381BF70D8CF4F925F926F927F92AF92DE
:1013E000BF92CF92DF92EF92FF920F931F93CF9312
:1013F000DF9300D000D0CDB7DEB78C0149835A838C
:101400006B837C835901C12CD12C7601412C82E065
:10141000582E612C712C49815A816B817C819E01EF
:101420002F5F3F4FC8010E946A09882339F1F801F4
:101430008585A301920104C0220F331F441F551F4D
:101440008A95D2F7DA01C901C80ED91EEA1EFB1E21
:1014500049815A816B817C818789803111F188EFC4
:101460009FEFAFEFBFE0481759076A077B0798F275
:10147000F501C082D182E282F38281E00F900F9069
:101480000F900F90DF91CF911F910F91FF90EF90F0
:10149000DF90CF90BF90AF907F906F905F904F9014
:1014A000089588EF9FEFA0E0B0E0DDCFCF93DF930A
:1014B000FC012581222321F080E0DF91CF91089566
:1014C000EC0180914505803159F582E08583178ACA
:1014D000108E118E128E8091460590914705B0E0D6
:1014E000A0E025E0880F991FAA1FBB1F2A95D1F7FE
:1014F000838B948BA58BB68B8EE295E09C8F8B8F24
:1015000081E08C831E821F82188619861A861B86AC
:101510001C861D861E861F86188A198A1A8ACDCFB8
:10152000803251F683E0858340914805509149050A
:1015300060914A0570914B05478B508F618F728F78
:101540009F012D5E3F4F8EE295E00E94EB098111D5
:10155000D3CFB2CF8F929F92AF92BF92CF92DF92B2
:10156000EF92FF920F931F93CF93DF93EC018D8146
:1015700081110EC080E0DF91CF911F910F91FF90FC
:10158000EF90DF90CF90BF90AF909F908F90089595
:101590000B891C892D893E890417150726073707F3
:1015A00048F34A015B01823031F48A869B86AC861F
:1015B000BD8681E0E0CF81149104A104B10449F417
:1015C0001E821F82188619861A861B861C861D8617
:1015D000F0CF0A851B852C853D85EB8DFC8D85859F
:1015E00090E00996B901A8014150510961097109BA
:1015F000082E04C076956795579547950A94D2F7BB
:1016000075016401E1E0CE1AD108E108F10804C0D7
:10161000F694E794D794C7948A95D2F7C416D50662
:10162000E606F70620F0012B022B032B11F58F891C
:10163000988DA98DBA8D8E839F83A887B9878E01D7
:101640000A5F1F4FC114D104E104F10409F4ADCFC6
:101650004E815F816885798598018B8D9C8D0E9474
:101660006A0991E0C91AD108E108F1088111EACFAD
:1016700081CFC41AD50AE60AF70AE1CF3F924F920A
:101680005F926F927F928F929F92AF92BF92CF9212
:10169000DF92EF92FF920F931F93CF93DF93CDB71B
:1016A000DEB72C970FB6F894DEBF0FBECDBF5C013E
:1016B000DC015B968D909C905C9716964D905D90AA
:1016C0006D907C901997411451046104710409F4E0
:1016D00068C0BFEF4B1A5B0A6B0A7B0A312CF4011E
:1016E00081859285A385B4859C01AD012F5F3F4F15
:1016F0004F4F5F4F29873A874B875C8773016201A1
:101700001D821E821F821886F40181859285A38521
:10171000B4852D813E814F815885281739074A07A6
:101720005B0708F056C089859A85AB85BC858C150A
:101730009D05AE05BF0550F482E0C82ED12CE12CEA
:10174000F12C92E0492E512C612C712C9E012F5FBF
:101750003F4FB701A601C4010E946A098823C9F15D
:1017600089819A81AB81BC81892B8A2B8B2B09F1D2
:10177000260137019FEF491A590A690A790A2D8112
:101780003E814F8158852F5F3F4F4F4F5F4F2D83D5
:101790003E834F8358873FEFC31AD30AE30AF30A05
:1017A000B3CFF4014080518062807380332433943E
:1017B00096CFC414D504E604F70409F70FEF1FEF22
:1017C0002FEF3FE0B701A601C4010E94C8088111B4
:1017D00019C080E02C960FB6F894DEBF0FBECDBFC7
:1017E000DF91CF911F910F91FF90EF90DF90CF90FD
:1017F000BF90AF909F908F907F906F905F904F9031
:101800003F900895D50116964D915D916D917C9113
:101810001997411551056105710539F09701860148
:10182000C4010E94C8088823A1F2D5011696CD9262
:10183000DD92ED92FC921997332051F0D701C60149
:101840000196A11DB11DF40180839183A283B3830E
:10185000F5018789908DA18DB28D892B8A2B8B2BD9
:1018600039F48481C78AD08EE18EF28E80688483B9
:10187000F50184818062848381E0ACCF1F93CF9394
:10188000DF93FC012581222371F1162FEC01848165
:1018900087FF1EC0CF010E948607FC01892B19F12A
:1018A0008D81823040F48B899C89AD89BE89848F7B
:1018B000958FA68FB78F8F89988D938F828F8F8901
:1018C000988DA98DBA8DB58BA48B8C818F778C83E5
:1018D000111103C08C818F7E8C83812FDF91CF917A
:1018E0001F910C94110780E0DF91CF911F91089513
:1018F000FF920F931F93CF93DF93EC018D81813083
:1019000041F090E080E0DF91CF911F910F91FF9027
:1019100008958C8181FFF5CF82FD1BC0009181026B
:1019200010918202C8010E946A050E944905F82EA2
:10193000C8010E9437058FEFF812E3CF8C8185FF35
:101940001BC060E0CE010E943E0C8C818F7D8C8399
:10195000D8CF4B895C896D897E898A859B85AC85CA
:10196000BD8584179507A607B707C1F2CE010E946F
:10197000AA0A8111D3CFC5CF40912F0250913002D6
:101980006091310270913202452B462B472B21F09A
:1019900080E00E94ED06B5CF80618C832A853B856F
:1019A000317080E092E0821B930BADCFCF93DF9339
:1019B000EC0161E00E943E0C882311F01D8281E061
:1019C000DF91CF9108952F923F924F925F926F9245
:1019D0007F928F929F92AF92BF92CF92DF92EF92BF
:1019E000FF920F931F93CF93DF9300D000D01F92ED
:1019F000CDB7DEB77C015B01342E5D83DC0115962B
:101A00008C911597813009F0CEC014962C9021FE50
:101A1000CAC022FCB4C0C32CDD8022947FE0272200
:101A20002094B22DB1702B2ED7011A964D915D9155
:101A30006D917C911D97C114D10409F428C15B9666
:101A40008D919C915C97FC0174807A948A019B0132
:101A500069E036952795179507956A95D1F7702215
:101A60008A011170711020C001151105E9F4169654
:101A70004D915D916D917C911997411551056105CD
:101A8000710509F099C057968D919D910D90BC916B
:101A9000A02D0097A105B10509F0B0C0C7010E94B3
:101AA0003E0B882309F47FC080E092E0801B910BFD
:101AB00046018C159D0508F44C01D7015B964D91AC
:101AC0005C915C9716968D919D910D90BC91A02D87
:101AD0000297A109B109FA01258504C0880F991F51
:101AE000AA1FBB1F2A95D2F7468557856089718941
:101AF000840F951FA61FB71F9C01AD01270D311D37
:101B0000411D511D29013A01811432E0930609F06B
:101B10007BC08091000190910101A0910201B091E0
:101B2000030184159505A605B70559F48FEF9FEFBE
:101B3000DC018093000190930101A0930201B09316
:101B40000301022D9501B301A201809181029091C0
:101B500082020E947F06882331F19EEFB91AC818CD
:101B6000D908F70182859385A485B585880D991DCF
:101B7000A11DB11D82879387A487B58755CFF70133
:101B8000438954896589768982859385A485B5853D
:101B9000481759076A077B0709F43DCFC7010E9420
:101BA000AA0A811138CF81E090E0D70113969C9367
:101BB0008E93129780E007C09E012F5F3F4F0E94D7
:101BC0006A09811102C090E079C089819A81AB8154
:101BD000BC81F701238D348DF901278948EF5FEF30
:101BE00060E070E0203121F048EF5FEF6FEF7FE0C1
:101BF00084179507A607B70708F050CFF70186832B
:101C00009783A087B18750CF0115110599F5D701AA
:101C10001A964D915D916D917C911D9753968D9182
:101C20009D910D90BC91A02D481759076A077B071D
:101C300008F181E00E941107882309F4B4CF409293
:101C400000015092010160920201709203018091A3
:101C50002E02816080932E02C8018D579D4FD501C1
:101C60009C01280D391DFC012E173F0759F04D919D
:101C70004193FACF41E0C301B2010E943C078111B8
:101C8000EBCF91CF281B390BA20EB31E68CFF70103
:101C900083899489A589B68984179507A607B7070C
:101CA00038F48481438B548B658B768B8068848376
:101CB000F701848183FD1AC0832D9D810F900F90C1
:101CC0000F900F900F90DF91CF911F910F91FF9088
:101CD000EF90DF90CF90BF90AF909F908F907F90CC
:101CE0006F905F904F903F902F90089561E0C701F3
:101CF0000E943E0C882309F456CFDECFCF93DF93AA
:101D00001F92CDB7DEB7698341E050E0BE016F5F3F
:101D10007F4F0E94E30C0F90DF91CF910895FC015B
:101D2000DB0112968D919C9113979383828386E2B7
:101D300091E09183808314968C91149784831596F7
:101D40008C911597858316964D915D916D917C913F
:101D5000199746835783608771871A964D915D91D5
:101D60006D917C911D9742875387648775871E9676
:101D70004D915D916D917C91519746875787608B0E
:101D8000718B52968C915297828B53964D915D91A7
:101D90006D917C915697438B548B658B768B5796C0
:101DA0004D915D916D917C915A97478B508F618FCA
:101DB000728F5B968D919C91948F838F0895089577
:101DC000FC01818D928D009719F061E00C943E0C1E
:101DD0000895DC015996ED91FC913097B9F0838913
:101DE0009489A589B6894285538564857585841B48
:101DF000950BA60BB70B811520E89207A105B1053D
:101E000038F08FEF9FE7A0E0B0E0089590E080E029
:101E10000895DC0159968D919C91009739F0DC0171
:101E2000ED91FC910480F581E02D099490E080E033
:101E30000895CF93DF93EC01E98DFA8D309749F443
:101E400081E090E09B838A8390E080E0DF91CF91F6
:101E5000089513821282898D9A8D0E94E30CE98D78
:101E6000FA8D22813381232B59F7F0CFCF93DF9363
:101E70001F92CDB7DEB76983DC01ED91FC91028042
:101E8000F381E02D41E050E0BE016F5F7F4F099587
:101E90000F90DF91CF9108952F923F924F925F92D2
:101EA0006F927F928F929F92AF92BF92CF92DF926A
:101EB000EF92FF920F931F93CF93DF9300D01F9267
:101EC000CDB7DEB7FC018581811118C08FEF9FEF80
:101ED0000F900F900F90DF91CF911F910F91FF9076
:101EE000EF90DF90CF90BF90AF909F908F907F90BA
:101EF0006F905F904F903F902F900895848180FF66
:101F0000E5CF438954896589768982859385A4853F
:101F1000B585312C212C481759076A077B0719F022
:101F200022242394312C6F012101CE0101963C0122
:101F3000DF011696BB83AA834114510409F4C5C07E
:101F4000F60142855385648575854A01F1E09F223B
:101F5000D6015B968D919C915C978A019B01E9E08B
:101F60003695279517950795EA95D1F71596EC9133
:101F7000E230E9F5FC01628D738D848D958D600FE3
:101F8000711F821F931FA12C22E0B22EA818B9083E
:101F90004A145B0408F45201F601248126FD04C0B2
:101FA000A114F2E0BF0671F400910001109101014B
:101FB00020910201309103010617170728073907FE
:101FC00009F05EC040E00E943C07882309F47ECF00
:101FD000C4018D579D4FD3019C012A0D3B1DFC016F
:101FE0002E173F0709F46CC041914D93F9CFDC01E6
:101FF0001496BC90BA94B0228114910479F4B11073
:102000000DC0452B462B472B69F5F6018789908D2E
:10201000A18DB28D86839783A087B187D6015B9609
:10202000ED91FC915C9716966D917D918D919C91AF
:1020300019976250710981099109258504C0660FBD
:10204000771F881F991F2A95D2F706851785208943
:102050003189600F711F821F931F6B0D711D811DD0
:10206000911D91CFD60116964D915D916D917C9108
:1020700019972A813B810E946A098111CFCF26CF0F
:10208000730185019401AB01BC01809181029091A3
:1020900082020E94DD05882309F418CF6A0C7B1C9C
:1020A000F60182859385A485B5858A0D9B1DA11DAA
:1020B000B11D82879387A487B5874A185B083CCFF8
:1020C000281B390B620E731EEBCF2A94232809F0CC
:1020D000FDCE898190E0FCCEFC01818D928D009730
:1020E00011F00C944C0F8FEF9FEF08950F931F93F7
:1020F000CF93DF93EC01898D9A8D10E000E000977B
:1021000099F00E944C0F8C010F3F100769F0898DE8
:102110009A8DFC014285538564857585415051092E
:10212000610971090E94AA0AC801DF91CF911F912C
:102130000F9108958F929F92AF92BF92CF92DF92AC
:10214000EF92FF920F931F93CF93DF9300D000D0B5
:10215000CDB7DEB7FC018581813091F080E00F9032
:102160000F900F900F90DF91CF911F910F91FF90E3
:10217000EF90DF90CF90BF90AF909F908F90089599
:10218000848181FFEBCF83899489A589B689892BC6
:102190008A2B8B2B09F45FC07F0140E050E0BA012D
:1021A000CF010E94AA0A8823C9F2F701C38CD48CFC
:1021B0008788908CA18CB28C82E090E0A0E0B0E0A7
:1021C000F60180839183A283B3839E012F5F3F4FEB
:1021D000B501A401C6010E946A09882309F4BECF93
:1021E00000E010E09801B501A401C6010E94C808F2
:1021F000882309F4B3CF89809A80AB80BC80F60134
:102200008789803119F188EF9FEFAFEFBFE0881623
:102210009906AA06BB06C8F2F701178A108E118E1E
:10222000128E138A148A158A168A848180688483A0
:1022300061E0C7010E943E0C882309F48FCF40E083
:1022400050E0BA01C7010E94AA0A89CF88EF9FEF28
:10225000A0E0B0E0DCCF81E082CFCF92DF92EF92BE
:10226000FF921F93CF93DF93EC0180E2689FF00110
:102270001124ED57FD4F9385917161F0842F827485
:1022800049F080E0DF91CF911F91FF90EF90DF90B8
:10229000CF900895142F6A8B8091000190910101D5
:1022A000A0910201B09103018E879F87A88BB98B03
:1022B000C488D588F12CE12C7601DD24CC24CF8A8A
:1022C000D88EE98EFA8E828D938DB0E0A0E0AC01BD
:1022D000BD014C295D296E297F294F8B588F698F4D
:1022E0007A8F83858871B1F4848D958DA68DB78D95
:1022F0008B8B9C8BAD8BBE8B81E08D831F701C8381
:102300001E821F82188619861A861B861C861D86C9
:1023100081E0B8CF803109F0B4CF9E012D5E3F4FF0
:102320008B8D9C8D0E94EB09882309F4AACF84E051
:10233000E4CFBF92CF92DF92EF92FF920F931F9361
:10234000CF93DF93EC01B62EC72E8D85811105C08A
:10235000CE010E94FA0381110EC01B861D861C86C9
:1023600080E0DF91CF911F910F91FF90EF90DF9070
:10237000CF90BF90089540E060EFCE010E94A70388
:1023800001E0E12CD12C11E0CE010E945403F82E83
:10239000CE010E94540391E0F91218C0813099F5E2
:1023A0001134D8F2DB86D11002C081E08D878B8199
:1023B000882399F22396EB2DFC2DCF0108962991C5
:1023C0002193E817F907D9F781E0CBCFEE2DF0E0A4
:1023D000F8120FC08B851817A0F4DE01AE0FBF1FD7
:1023E00013968C91802379F4F12C193008F41C8712
:1023F000D12EEC0FFD1F8381902F9095892383832D
:102400000AC08113F1CFFE01EE0DF11D8381802BF7
:102410008383FF24F3946F2DCE010E9478031F5F06
:10242000000F11F4E39401E087E08E1508F0ACCFC3
:10243000B7CF0F931F93CF93DF93CDB7DEB76197DD
:102440000FB6F894DEBF0FBECDBF8C01DC0119962C
:10245000ED91FC911A9713861586148612861186C3
:10246000108617821682158214821382BE01665F5F
:102470007F4F19968D919C910E94991181110FC0E7
:1024800060E070E08EEF92EC61960FB6F894DEBFDC
:102490000FBECDBFDF91CF911F910F91089567E0DF
:1024A000CE010A960E943D0399898913E9CFAE01B6
:1024B0004F5F5F4FBE01665F7F4FC8010E94C0043F
:1024C0008823F1F26A8170E0762F6627770F770F05
:1024D000770F2981B8E02B9F90011124262B372BF1
:1024E0008A858031E1F468856623C9F070E08F81C8
:1024F000FB01E81BF109CF019695982F8827979546
:1025000087950E944627CB018097B90153E0660F5B
:10251000771F5A95E1F760789C01260F371F213805
:10252000F4EE3F070CF4ACCFB901330F880B990BD5
:102530000E94B02420E030E040E05CE30E940F25E0
:10254000A3CFEF92FF920F931F93CF93DF93CDB75B
:10255000DEB761970FB6F894DEBF0FBECDBF8C011A
:10256000DC011996ED91FC911A9713861586148655
:1025700012861186108617821682158214821382A3
:1025800017961C92179718961C92FF24F394BE017D
:10259000665F7F4FF801818592850E94991188239B
:1025A00009F472C067E0CE010A960E943D03998942
:1025B0008913EDCFD80117968C9117978F5F1796D7
:1025C0008C938A85883231F008F045C0803111F053
:1025D0008232E9F6F80180858F5F808780818111E2
:1025E00024C0818592850E94FA03BE01665F7F4FF9
:1025F000D80119968D919C910E94DB0340E064EB19
:10260000F801818592850E94A703D80119968D91C2
:102610009C910E945403E82EF801818592850E94C6
:10262000FA03E11002C0D801FC928A858031F1F0F2
:10263000AE014F5F5F4FBE01665F7F4FC8010E94D2
:10264000C004882331F08D818F33D1F058F48F315D
:10265000C9F080E00EC08B3309F4BCCF823409F09E
:1026600096CFB8CF8F3521F08F3799F78CE001C026
:102670008BE0F8019381981708F089CF838387CF87
:102680008AE0F7CF89E0F5CF61960FB6F894DEBF08
:102690000FBECDBFDF91CF911F910F91FF90EF90B3
:1026A00008952F923F924F925F926F927F928F92F6
:1026B0009F92AF92BF92CF92DF92EF92FF920F93D1
:1026C0001F93CF93DF93D82FC92F8B010E946D24C6
:1026D00024E630E040E050E00E945A2749019B0187
:1026E000AC0160E876E988E990E00E9436276B014A
:1026F0007C01F80191828082ED2FFC2F2191822FA5
:10270000022E000C990BC0970A97C0F32E3239F5B0
:102710001F0180E8882E86E9982E88E9A82EB12C22
:102720009AE0492E512C612C712CF101C1911F01AD
:102730000C2E000CDD0BE097CA30D10580F4C501EA
:10274000B401A30192010E945A2749015A01DE01F6
:102750000E948227C60ED71EE81EF91EE6CFA5E00E
:10276000B0E0A70196010E94CD256F5F7F4F8F4F8C
:102770009F4F23E030E040E050E00E945A27F801EC
:1027800022833383448355831682DF91CF911F9137
:102790000F91FF90EF90DF90CF90BF90AF909F9000
:1027A0008F907F906F905F904F903F902F90089503
:1027B0001F93CF93DF93EC0118811D3209F421960A
:1027C000CE010E946D249B01AC01A4E6B0E00E9402
:1027D000CD25AB01BC01FE012991822F022E000CF8
:1027E000990BC0970A97B8F32E3231F58181082EE4
:1027F000000C990BC0978A309105F0F4AAE0A89FCD
:102800009001A99F300D1124C901330FAA0BBB0BF6
:10281000480F591F6A1F7B1F8281082E000C990BDD
:10282000C0978A30910540F4092E000CAA0BBB0B0F
:10283000480F591F6A1F7B1F1D3239F47095609530
:10284000509541955F4F6F4F7F4FCB01BA01DF919C
:10285000CF911F9108950F931F93CF93DF93EC01B6
:1028600088819981009759F02A813B812617370783
:1028700030F081E0DF91CF911F910F9108958B018E
:102880006F5F7F4F0E94C328009759F09983888318
:102890001B830A832C813D81232B59F7FC01108275
:1028A000E8CF80E0E7CFEF92FF920F931F93CF9393
:1028B000DF93EC017B01198218821B821A821D8230
:1028C0001C82FB0101900020E9F731978F01061B64
:1028D000170BB8010E942B1428813981811113C074
:1028E0002115310519F0C9010E943A281982188270
:1028F0001D821C821B821A82DF91CF911F910F9142
:10290000FF90EF9008951D830C83B701C901DF91FB
:10291000CF911F910F91FF90EF900C94AA29FB018A
:1029200001900020E9F73197AF01461B570BDC01FE
:10293000ED91FC910280F381E02D09948F929F929A
:10294000AF92BF920F931F93CF93DF93CDB7DEB7B4
:10295000A1970FB6F894DEBF0FBECDBF19A24230CB
:1029600008F44AE08E010F5D1F4F842E912CB12C8C
:10297000A12CA50194010E945A27E62FB901CA0192
:10298000EA3004F5E05DD801EE938D01232B242B72
:10299000252B79F790E080E0109729F0BD0181E7C1
:1029A00095E00E948F14A1960FB6F894DEBF0FBE7B
:1029B000CDBFDF91CF911F910F91BF90AF909F90AE
:1029C0008F900895E95CDFCFCF92DF92EF92FF9274
:1029D000CF93DF936C01990FEE08FF08F7FE19C043
:1029E0006DE281E795E00E94360FEC0166277727BC
:1029F000CB016C197D098E099F094AE00E949E1443
:102A00008C0F9D1FDF91CF91FF90EF90DF90CF90C3
:102A100008954AE0C701B601DF91CF91FF90EF9092
:102A2000DF90CF900C949E144F925F926F927F92A2
:102A30008F929F92AF92BF92CF92DF92EF92FF92CE
:102A40000F931F93CF936B017C01742EAC019B01FC
:102A50000E94312762E571E0811126C046015701CD
:102A6000E894B7F82FEF3FEF4FE75FE7C501B401F8
:102A70000E94312781110CC02FEF3FEF4FE75FE736
:102A8000C501B4010E94A92466E571E0181664F03E
:102A90002FEF3FEF4FE75FE4C701B6010E942C27FD
:102AA0001816ACF46AE571E081E795E0CF911F91CB
:102AB0000F91FF90EF90DF90CF90BF90AF909F90DD
:102AC0008F907F906F905F904F900C948F142FEFAA
:102AD0003FEF4FE75FECC701B6010E94A92487FDD5
:102AE000E1CF20E030E0A901C701B6010E94A9248E
:102AF00010E000E087FF0AC06DE281E795E00E94E8
:102B0000360F8C01F7FAF094F7F8F094C0E060E02B
:102B100070E080E09FE37C1641F020E030E040E28E
:102B200051E40E948B26CF5FF6CFA70196010E9449
:102B30001F262B013C010E94FD264B015C014AE04F
:102B40000E949E147C01E00EF11ECC23C1F1C50150
:102B5000B4010E94AE249B01AC01C301B2010E94EA
:102B60001E264B015C016EE281E795E00E94360F64
:102B7000E80EF91EC15018F120E030E040E251E4C7
:102B8000C501B4010E940F252B013C010E94FD26C6
:102B90004B01B12CA12C4AE0C501B4010E949E1446
:102BA000E80EF91EC501B4010E94AE249B01AC01E0
:102BB000C301B2010E941E264B015C01DBCFC7019D
:102BC000CF911F910F91FF90EF90DF90CF90BF902A
:102BD000AF909F908F907F906F905F904F900895EF
:102BE0000F931F93CF93DF93EC010E948F148C01FE
:102BF0006EE571E0CE010E948F14800F911FDF916E
:102C0000CF911F910F9108953F924F925F926F92D3
:102C10007F928F929F92AF92BF92CF92DF92EF926C
:102C2000FF920F931F93CF93DF93CDB7DEB72B9710
:102C30000FB6F894DEBF0FBECDBF7C01DC01159648
:102C40008C91811115C0FE013196CE010C966F0159
:102C500030E23193E817F907E1F7DA0130E087E075
:102C60009D91B92E992329F19E3239F48A3011F4BD
:102C700080E0DAC038E08AE0F3CFE8E6F0E04491A3
:102C8000442321F031969413FACFF2CF831780F3C7
:102C90004FED490F4E3560F74FE9490F4A3118F4AF
:102CA00040EEB42EB90EF601E30FF11DB0823F5F86
:102CB000D7CF89818032E1F2322E8B01FB01838DE7
:102CC000948DD7015C969C938E935B9716821782A6
:102CD000108611861286138614861586F801828561
:102CE0009385A485B5854389548965897689841738
:102CF0009507A607B70708F04DC025E0B695A7953C
:102D0000979587952A95D1F7F82FFF70AF2ED801A8
:102D100015968C91823008F4ABCFC8010E944C0FFD
:102D200097FDA6CFF80182859385A485B5854F963A
:102D3000A11DB11D82879387A487B587F0E2AF9E5E
:102D4000B00111246D577D4F6115710509F490CFC5
:102D5000DB018C91882341F0853E09F058C0BB20EF
:102D600029F0BB24B394BACFB1100EC0F701A28AE8
:102D70008091000190910101A0910201B0910301A5
:102D800086879787A08BB18BDB018C918111E9CF6E
:102D9000BB24B394832D8271823109F069CFBB20AB
:102DA00009F45AC0C7010E948607009709F460CF52
:102DB00020E2FC0111922A95E9F72BE0F601DC01F3
:102DC00001900D922A95E1F721E238E2DC0151965B
:102DD0003C932E93509740E058E01F965C934E939F
:102DE0001E9753963C932E93529759963C932E934D
:102DF000589757965C934E93569781E00E9411071F
:102E0000882309F435CF432DF70162890AC04BE0CE
:102E100050E0C6010E948029892B09F05FCF432D25
:102E20006A2DC7010E942D112B960FB6F894DEBFB4
:102E30000FBECDBFDF91CF911F910F91FF90EF900B
:102E4000DF90CF90BF90AF909F908F907F906F90CA
:102E50005F904F903F900895F8018581823009F48A
:102E600007CFC8010E943E0B882309F401CFD80187
:102E70005B96ED91FC915C9716968D909D90AD9030
:102E8000BC901997B2E08B1A9108A108B10885850A
:102E900004C0880C991CAA1CBB1C8A95D2F7868595
:102EA0009785A089B189880E991EAA1EBB1E8481B0
:102EB00024013501480E511C611C711C84149504B9
:102EC000A604B70409F1E1E04E1A5108610871083F
:102ED00081E00E941107882309F4CACEE3E8F2E0FA
:102EE000119283E894E08E179F07D1F7409200017A
:102EF00050920101609202017092030180912E02B2
:102F0000816080932E02DACFD8015B96ED91FC911F
:102F1000258580E092E0A0E0B0E004C0880F991F12
:102F2000AA1FBB1F2A95D2F7F801438954896589E6
:102F30007689840F951FA61FB71F838B948BA58B53
:102F4000B68BD70152961C9283E892E031CF5F9204
:102F50006F927F928F929F92AF92BF92CF92DF92A9
:102F6000EF92FF920F931F93CF93DF93CDB7DEB70E
:102F7000C754D1090FB6F894DEBF0FBECDBF5C01B8
:102F80003B0119A218A286E291E09F8F8E8F1BA2AF
:102F90001C821B829A8389831E8210E000E06E01EE
:102FA0008EE1C80ED11C8CE4E82E85E0F82EF501E8
:102FB000E00FF11F80818F3211F40F5F1F4FD50199
:102FC000A00FB11FFE01FB9690E080E04F012D9114
:102FD0002F3249F0222339F00F5F1F4F01962193C2
:102FE0008C309105A1F7880D991DFC011082F50127
:102FF000E00FF11F80818F3211F40F5F1F4FF50139
:10300000E00FF11F508041E0511040E030E020E03F
:10301000B401C701F3010995811121C0FCE4EF1649
:10302000F5E0FF06C1F480E0C95BDF4F0FB6F8940E
:10303000DEBF0FBECDBFDF91CF911F910F91FF90EB
:10304000EF90DF90CF90BF90AF909F908F907F9048
:103050006F905F900895C7010E94D60CE4CF552071
:1030600091F021E0A401B701C6010E940416982E38
:103070008CE4E81685E0F80681F0C7010E94D60CC2
:10308000911010C0D0CF9CE4E91695E0F90619F034
:10309000C7010E94D60C81E0C7CF992021F2FE0122
:1030A00031967F019E2D8F2D7601C92ED82E7FCF90
:1030B0001F93CF93DF93CDB7DEB76D970FB6F8941C
:1030C000DEBF0FBECDBFAB011C821B8226E231E00A
:1030D0003A8329831E8221E0BC01CE0101960E9421
:1030E000041611E081110CC010E0812F6D960FB60F
:1030F000F894DEBF0FBECDBFDF91CF911F91089531
:10310000CE0101960E94D60CF0CFCF93DF93CDB7BE
:10311000DEB76D970FB6F894DEBF0FBECDBF442368
:1031200099F1AB01BC011C821B8286E291E09A837B
:1031300089831E8222E0CE0101960E94041681112D
:103140000EC090E081E0911101C080E06D960FB655
:10315000F894DEBF0FBECDBFDF91CF910895CE01B1
:1031600001960E949A10882361F3CE0101960E9475
:103170008607009731F325EEFC0120831E8281E053
:103180000E941107982FDECF81E0E0CFEF92FF92EF
:103190000F931F93CF93DF93EC017B018A011B8276
:1031A0001A8288EE93E0A0E0B0E08C839D83AE832A
:1031B000BF8382E391E0998388838DE190E00E9450
:1031C0009E279A8F898F009779F02DE1F701DC0116
:1031D00001900D922A95E1F74CE050E0B801CE0144
:1031E0000C960E94B129188EDF91CF911F910F91FB
:1031F000FF90EF9008951F920F920FB60F92112437
:103200002F933F938F939F93AF93BF9380917902B6
:1032100090917A02A0917B02B0917C023091780269
:1032200023E0230F2D3758F50196A11DB11D2093E2
:1032300078028093790290937A02A0937B02B093F4
:103240007C0280917D0290917E02A0917F02B091DC
:1032500080020196A11DB11D80937D0290937E0294
:10326000A0937F02B0938002BF91AF919F918F9105
:103270003F912F910F900FBE0F901F90189526E849
:10328000230F0296A11DB11DD2CF1F920F920FB630
:103290000F9211242F933F934F935F936F937F93DC
:1032A0008F939F93AF93BF93EF93FF9383E894E043
:1032B0000E94D101FF91EF91BF91AF919F918F91AA
:1032C0007F916F915F914F913F912F910F900FBE22
:1032D0000F901F9018951F920F920FB60F92112406
:1032E0002F938F939F93EF93FF93E0919304F0912B
:1032F00094048081E0919904F0919A0482FD1BC0AE
:10330000908180919C048F5F8F7320919D04821720
:1033100041F0E0919C04F0E0ED57FB4F958F8093D6
:103320009C04FF91EF919F918F912F910F900FBE71
:103330000F901F9018958081F4CF1F920F920FB6B7
:103340000F9211242F933F934F935F936F937F932B
:103350008F939F93AF93BF93EF93FF93E091750289
:10336000F0917602309749F0A685B7858585968DD0
:1033700091FF14C09C918923A1F4FF91EF91BF911B
:10338000AF919F918F917F916F915F914F913F91FD
:103390002F910F900FBE0F901F9018959C9189232D
:1033A00061F7A389B4899C918589809589238C9341
:1033B000868997890197F1F7608D718DA685B7850C
:1033C000558538E020E0CB010197F1F7822F90E09E
:1033D00095958795282F4C91452309F02068315009
:1033E00091F7868D81FD20958091740290E0019681
:1033F0008F73992730917302381799F0A091740256
:10340000B0E0AD5CBD4F2C9380937402828D938DA0
:103410000197F1F7A389B4898C919589892B8C93B5
:10342000ACCF868D8160868FF1CF1F93CF93DF93D2
:10343000EC01162F60E0812F0E94F100612F70E0F7
:10344000FB01E252FF4FE491E883FB01E653FF4F9B
:10345000E491F0E0EE0FFF1FEA54FF4F8591949145
:103460009A8389831B861D861C861A861986188670
:103470001F821E821D821C821B82DF91CF911F91B1
:103480000895109286041092850488EE93E0A0E0DF
:10349000B0E08093870490938804A0938904B0934C
:1034A0008A0424E131E0309384042093830425ECE2
:1034B00030E03093900420938F0424EC30E030937C
:1034C00092042093910420EC30E0309394042093F4
:1034D000930421EC30E0309396042093950422EC81
:1034E00030E0309398042093970426EC30E030933A
:1034F0009A042093990410929C0410929D041092B7
:103500009E0410929F0420E520932005109221052F
:10351000109227051092280510922B0510922D0568
:1035200042E050E060E070E040932E0550932F059C
:1035300060933005709331051092450510924F0548
:1035400010924E0526E231E030934D0520934C0554
:10355000109251051092F5051092F6051092F8059B
:103560001092F7051092F9051092FA051092FB05DA
:103570001092FC051092FD051092FF051092FE05B9
:103580001092000610920106109202061092030695
:103590001092040610920606109205061092070675
:1035A000109208061092090610920A0610920B0655
:1035B00010920D0610920C0610920E0610920F0635
:1035C0001092100610921106109212061092170611
:1035D000109218061092190610921A0610921B06E5
:1035E00010921C06109225061092260610922706AD
:1035F000109228061092290610922A06109233067D
:10360000109234061092390610923A0610923B0638
:1036100010923C0610924106109242061092470604
:10362000109248061092490610924A0610924F06D0
:103630001092500610925506109256061092570698
:103640001092580610925D0610925E061092630664
:1036500010926406109265061092660610926B0630
:1036600010926C06109271061092720610927306F8
:10367000109274061092790610927A0622E0209336
:103680008A0610928B0610928C0610928D0610926C
:103690008F0610928E06109291061092900610924C
:1036A000920610929306109294061092950610922C
:1036B000960610929706109298061092990610920C
:1036C0009A0610929B0610929C0610929D061092EC
:1036D0009E0610929F061092A0061092A1061092CC
:1036E0007B061092D9051092D8058093DA05909345
:1036F000DB05A093DC05B093DD0584E491E09093B5
:10370000D7058093D6051092ED051092EC05109226
:10371000EF051092EE051092F1051092F00510924F
:10372000F3051092F2056091F4056E7F6D7F609352
:10373000F4056695617081E0682783E00E94A5002A
:1037400061E083E00E94F100E1EEF0E0E491E093BB
:10375000E605EDECF0E0E491F0E0EE0FFF1FE05441
:10376000FF4F859194919093E8058093E70560E081
:1037700084E00E94F1008091F40581FD04C061E0C5
:1037800084E00E94A50084E08093E205E2EEF0E090
:10379000E491E093E305EEECF0E0E491F0E0EE0F6D
:1037A000FF1FEA54FF4F859194919093E505809314
:1037B000E40565E088EC95E00E94151A66E08AEB66
:1037C00095E00E94151A1092B9051092B805109252
:1037D000A40588EC95E09093AD058093AC0510921C
:1037E000AA051092AB051092A30599E09093A60547
:1037F00081E08093A7058093A8058093A905109286
:10380000A2051092A10510928D052AEB35E03093A8
:1038100096052093950510929305109294051092A9
:103820008C0590938F0580939005809391058093EC
:103830009205109274051092730588EE93E0A0E053
:10384000B0E08093750590937605A0937705B093CB
:10385000780582E391E09093720580937105109250
:103860008B0510928A0510927D0561E671E08BE66A
:1038700095E00C945314CF93DF93CDB7DEB7C658C1
:10388000D1090FB6F894DEBF0FBECDBF789484B5D2
:10389000826084BD84B5816084BD85B5826085BD4C
:1038A00085B5816085BD80916E00816080936E00DA
:1038B00010928100809181008260809381008091CC
:1038C000810081608093810080918000816080937D
:1038D00080008091B10084608093B1008091B0003D
:1038E00081608093B00080917A00846080937A0038
:1038F00080917A00826080937A0080917A00816062
:1039000080937A0080917A00806880937A00109288
:10391000C100E0919304F091940482E08083E091EF
:103920008F04F09190041082E0919104F091920440
:103930008FEC808310929B04E0919704F09198049F
:1039400086E08083E0919504F09196048081806107
:103950008083E0919504F091960480818860808353
:10396000E0919504F0919604808180688083E091D5
:103970009504F091960480818F7D80831092F105EB
:103980001092F0051092EF051092EE051092ED05E1
:103990001092EC058DE991E09093F3058093F20588
:1039A0009091E205963108F047C02DEB30E030935E
:1039B000ED052093EC052BE931E03093EF052093E2
:1039C000EE052CE231E03093F1052093F0052091D3
:1039D000680084E0983048F031E09E3008F430E030
:1039E00081E001C0880F3A95EAF7822B8093680046
:1039F0002DE630E0983050F02BE630E09E3030F08D
:103A00002CE630E0963110F030E020E03093EA050B
:103A10002093E905292F30E0983008F0D5C081E0E7
:103A200001C0880F9A95EAF78093EB058091F20523
:103A30009091F3050197F1F78091F0059091F105D0
:103A4000892B49F1E0917502F091760225E0E63D7F
:103A5000F20709F1309739F0A389B4899C918589DF
:103A6000809589238C938091F4058E7F8093F40553
:103A7000109274021092730286ED95E09093760294
:103A800080937502E091E905F091EA0580819091BB
:103A9000EB05892B808361E08AE00E94F10083EAD4
:103AA00095E00E94A1128CE895E00E94A1128091FD
:103AB0005105882321F08CE495E00E94D60C1092E9
:103AC0002D0510922B0510922805109227058AE0EB
:103AD000809326050E9447018B0161E080912605B5
:103AE0000E94F10061E0809126050E94A500FFB6CA
:103AF000F89480917702811127C0E4EDF0E0849181
:103B0000E8EEF0E09491E82FF0E0EE0FFF1FE856AA
:103B1000FF4FA591B491EC91E92321F461E08AE093
:103B20000E94A50061E08AE00E94F1008CB58061EE
:103B30008CBD8CB580648CBD61E08DE00E94F1008D
:103B400061E08BE00E94F100809177028F5F8093AB
:103B50007702FFBE82E580932005109221058091B7
:103B60002005909121050E9467053AE0F32E8FEF22
:103B70000E944205FA94F110FACF82E295E00E9489
:103B80006A0520E030E0A90160E082E295E00E9451
:103B90008005F82E80932C0581E0F81611F10E9423
:103BA0004701601B710B613D774058F381E08093C2
:103BB000270582E295E00E94370562EE71E083E816
:103BC00094E00E94F01595C19E3040F428503109D0
:103BD00081E001C0880F2A95EAF726CF2E503109DF
:103BE000F7CF2AEA31E040E050E068E082E295E079
:103BF0000E94800582FF2AC0F0922D0580912D053C
:103C0000C12CD12CE12C90E4F92E823019F0C12C7A
:103C1000D12C760120E030E0A90167E382E295E053
:103C20000E948005A701960169E282E295E00E9468
:103C3000800580932C058823D1F00E944701601BEA
:103C4000710B613D774030F388E0B1CF24E0F22E74
:103C50000E94490580932C05FA94F110F9CF8A3A15
:103C600011F082E0A4CF82E080932D05C7CF809130
:103C70002D058230D1F420E030E0A9016AE382E230
:103C800095E00E948005882311F086E090CF0E9485
:103C90004905807C803C19F483E080932D050E94C7
:103CA00049050E9449050E94490582E295E00E946B
:103CB000370580E5809320051092210581E00E9460
:103CC0009F07882309F456C08CE495E00E94560AA9
:103CD000882309F472CF6AE671E083E894E00E94D9
:103CE000F01568E578E180916B0590916C050E9474
:103CF000A717882341F065E878E180916B059091E2
:103D00006C050E94A717A0906B05B0906C0519A2D6
:103D100018A286E291E09F8F8E8F1BA21C821B82CD
:103D20009A8389831E824E01BEE18B0E911CC401D1
:103D30000E94560A65018E010F5F1F4F2401180172
:103D40006FE270E0C6010E949629009709F45EC0F8
:103D5000F60120812F32A9F4FFEFCF1ADF0A902F4E
:103D6000812F8201492E582E942D852D2801092F4F
:103D7000182FE6CF80E00E949F07882309F41DCF0B
:103D8000A3CF8C198D3008F08CE0E82EF12CA70120
:103D9000B601CE01885A9F4F0E94B129E8E5F0E0B4
:103DA000EC0FFD1FEE0DFF1D1082C8010E94D60C06
:103DB00021E0AE01485A5F4FB201C8010E940416CB
:103DC00081111EC01EAE1DAE86E291E09CAF8BAF8E
:103DD00021961FAE2197A60CB71CD5018C9181119D
:103DE0001EC0BE01655C7F4FC1010E948F0E43E87B
:103DF00051E0B101CE01885A9F4F0E94C61836C0CB
:103E0000CE0CDF1CC2010E94D60CAECF36016A1860
:103E10007B08B201CE01CB960E948F0EDCCF19A297
:103E200018A286E291E09F8F8E8F1BA221968FAD04
:103E3000219781114AC16C961FAE1EAE6C9788EE19
:103E400093E0A0E0B0E0A0968CAF9DAFAEAFBFAF67
:103E5000A09782E391E06A969FAF8EAF6A97E39650
:103E60001FAE1EAEE397A5961FAEA5976C968EADBE
:103E70009FAD6C979093740580937305A0968CAD5D
:103E80009DADAEADBFADA0978093750590937605BF
:103E9000A0937705B0937805A4968CAD9DADAEAD9B
:103EA000BFADA4978093790590937A05A0937B0585
:103EB000B0937C05A8E5B0E0AC0FBD1F1C96EDE704
:103EC000F5E08D91819325E0EA38F207D1F7E3968A
:103ED0008EAD9FADE39790938B0580938A0565E83F
:103EE00071E081E795E00E94F01581E795E00E947E
:103EF000E00E2224239411E082E0382E86ED95E036
:103F00000E94D502181619060CF0AEC486ED95E095
:103F10000E94EB02082F8091920690919306A09147
:103F20009406B09195060196A11DB11D809392064D
:103F300090939306A0939406B0939506043209F4E7
:103F400024C4E0918C0605320CF0DBC00A3019F075
:103F50000D3009F027C4EF3008F050C1F0E0E5580B
:103F6000F94F108280917A06882309F4D4C22091F7
:103F70007B06822F022E000C990B3FEB320F36305E
:103F800008F0CBC0C7978295807F90917C06292F3F
:103F9000092E000C330B4FEB490F463008F0C5C01B
:103FA00027533109820F90917906891314C18091AA
:103FB0009E0690919F06A091A006B091A106019641
:103FC000A11DB11D80939E0690939F06A093A0060D
:103FD000B093A10680918D06882399F08091960672
:103FE00090919706A0919806B09199060196A11D0F
:103FF000B11D8093960690939706A0939806B09370
:104000009906F0908A06FF2009F498C081E0F81222
:1040100034C087E196E00E94260385E296E00E9484
:10402000260380918D06882341F187E0E5E0F6E0E4
:10403000A7EFB5E001900D928A95E1F787E0ECE0FB
:10404000F6E0AEEFB5E001900D928A95E1F70E949F
:10405000470160931306709314068093150690939E
:104060001606F092F605F092F50583E396E00E94BD
:104070000F0381E496E00E940F03E0909006F09019
:104080009106E114F10409F4B9C0E0919006F091B1
:10409000910666A177A1D70196968D919C910E9479
:1040A000A129892B09F0AAC0B701C70140960E9437
:1040B000AA290E944701F70160A371A382A393A3D9
:1040C00025A224A2E2A4F3A4DCCF27E1A501BE012E
:1040D000655C7F4FC4010E940416882309F4ABCEAF
:1040E000CE01CB960E94D60C49A95AA96BA97CA9EE
:1040F000C4010E94AA0AB401C1010E948F0EA50149
:1041000078CE0A3209F427CF0C3209F04BC38091E4
:1041100079068027809379061ECF2156263018F421
:104120008755910930CFC0972ECF9156963018F40D
:104130002755310937CF2053310934CF85E296E036
:104140000E94260380918D06882321F187E0E5E017
:10415000F6E0A7EFB5E001900D928A95E1F787E0D0
:10416000ECE0F6E0AEEFB5E001900D928A95E1F754
:104170000E944701609313067093140680931506FE
:10418000909316061093F6051093F5058FE496E0CC
:104190000E940F038091670690916806A0916906BE
:1041A000B0916A068093630690936406A0936506B7
:1041B000B09366060E94470160935F0670936006A5
:1041C000809361069093620610935E0610935D06DD
:1041D0008BE696E050CF80919A0690919B06A09135
:1041E0009C06B0919D060196A11DB11D80939A0673
:1041F00090939B06A0939C06B0939D0680918B069E
:104200008F5F80938B0610928C0681E00A3209F052
:1042100080E080937A068091F605882309F46ECEBB
:1042200080915E06882309F469CE1092F6056091AC
:10423000F9057091FA058091FB059091FC050E94AB
:10424000AE2428E23BE64EE65EE40E948B266B013C
:104250007C016091F7057091F80590E080E00E9484
:10426000AE249B01AC01C701B6010E941F264B0181
:104270005C018091FD05882321F0B7FAB094B7F86E
:10428000B0946091000670910106809102069091B1
:1042900003060E94AE2428E23BE64EE65EE40E945E
:1042A0008B266B017C016091FE057091FF0590E00B
:1042B00080E00E94AE249B01AC01C701B6010E94C0
:1042C0001F266B017C0180910406882321F0F7FAF8
:1042D000F094F7F8F0941092500680915506909162
:1042E0005606A0915706B0915806E7968CAF9DAF41
:1042F000AEAFBFAFE79710925E06809163069091D4
:104300006406A0916506B0916606EB968CAF9DAFF2
:10431000AEAFBFAFEB9710922606409027065090A5
:1043200028066090290670902A0610926C068091EB
:10433000710690917206A0917306B0917406EF9683
:104340008CAF9DAFAEAFBFAFEF9783EA95E00E9411
:10435000320483EA95E00E941912C158DF4F688346
:1043600079838A839B83CF57D0408CE895E00E9465
:1043700032048CE895E00E941912CD57DF4F688314
:1043800079838A839B83C358D040E0918A05F0915A
:104390008B05309709F41BC28581882309F417C265
:1043A000C301B20120E432E44FE050E00E945A27FA
:1043B000822F90E00E94E41468E172E081E795E0CA
:1043C0000E948F14C301B20120E137E240E050E0C7
:1043D0000E945A27CA01B90124E630E040E050E0CB
:1043E0000E945A27CB010E94E41468E172E081E741
:1043F00095E00E948F14C301B20124E630E040E052
:1044000050E00E945A27CA01B90124E630E040E09A
:1044100050E00E945A27CB010E94E4146AE172E046
:1044200081E795E00E948F1446E0C501B4010E9427
:1044300014156AE172E081E795E00E948F1446E06E
:10444000C701B6010E9414156AE172E081E795E0A8
:104450000E948F14E7966CAD7DAD8EAD9FADE79752
:104460000E94B02420E030E048EC52E40E948B2609
:1044700043E00E9414156AE172E081E795E00E9432
:104480008F14E9968EAD9FADE9970E94E4146AE11E
:1044900072E081E795E00E948F14EF966CAD7DADE0
:1044A0008EAD9FADEF970E94B02420E030E048EC45
:1044B00052E40E948B2642E00E9414156AE172E0E9
:1044C00081E795E00E948F1442E0C158DF4F688178
:1044D00079818A819B81CF57D0400E9414156AE16F
:1044E00072E081E795E00E948F1442E0CD57DF4FE4
:1044F000688179818A819B81C358D0400E941415BC
:104500006EE571E081E795E00E948F1481E795E008
:104510000E94E00EF3CC90918B06911146C060E0B2
:1045200072E08BE796E00E94A129892B41F066E0BA
:1045300072E08BE796E00E94A129892B01F5109388
:104540008A0680918E0690918F06909391068093B3
:104550009006E0909006F0909106E114F10409F4C1
:104560004DCE6BE776E0D70196968D919C910E9497
:10457000A12997FF86C1F70182A593A5E6CF6CE03C
:1045800072E08BE796E00E94A129892B41F062E15D
:1045900072E08BE796E00E94A129892B19F4109212
:1045A0008A06CFCF30928A06CCCFE0918A06E230DD
:1045B00009F448C080917B06882309F443C020E2B7
:1045C000E29FF0011124E92B3197E932F10508F05F
:1045D00039C0E351FD4D0C947C27162358235F23EB
:1045E0006623692397239E23AB23B8232223222308
:1045F0002223222322232223222322232223222393
:104600002223222322232223222322232223222382
:104610002223222322232223222316235223582318
:104620005F236623692370237D238A238BE796E02B
:104630000E94D81360932B0670932C0680932D064E
:1046400090932E06E0909006F0909106C0908B0615
:10465000E114F10409F4D2CDE0919006F0919106B5
:1046600066A177A1D70196968D919C910E94A12970
:10467000892B09F0C3CDF70120A531A5D12CC21695
:10468000D3060CF4BBCD2C153D0539F440E150E0C8
:104690006BE776E0C7010E94B129D7019A96ED90A9
:1046A000FC90D4CF91E0813409F445C090E043C040
:1046B00065E076E08BE796E00E945113C3CF91E06E
:1046C000833509F090E090930B06BCCF6CE076E068
:1046D000F1CF91E0873509F090E090931206B2CFC8
:1046E0008BE796E00E94D81360933D0670933E06D8
:1046F00080933F0690934006A5CF8BE796E00E94FB
:10470000D81360934B0670934C0680934D0690939C
:104710004E0698CF8BE796E00E946D2460931D06AD
:1047200070931E0680931F06909320068BCF91E016
:1047300081330CF4BBCF90938D0684CF8BE796E04A
:104740000E946D24609367067093680680936906E3
:1047500090936A0677CF8BE796E00E94D813609318
:1047600075067093760680937706909378066ACFE5
:104770008BE796E00E94D8136093590670935A060F
:1047800080935B0690935C065DCF10928C0610922E
:104790008B061092790630928A0610927A06109251
:1047A0008D0639CDEE3040F481E08E0F80938C067B
:1047B000F0E0E558F94F008380917A0681112BCD06
:1047C00080917906D82ED026D092790624CD6CE13E
:1047D00072E0CE0101960E945314C0906B05D090F8
:1047E0006C05C114D10499F1E0906F05F09070054B
:1047F000E114F104B1F08D819E81E80EF91EB7013C
:10480000CE0101960E942B14882309F129813A8157
:104810008D819E81B601820F931F0E94AA29FE827C
:10482000ED824D815E8169817A8183E894E00E9406
:1048300053016EE571E083E894E00E948F14898152
:104840009A81009709F45ACB0E943A2857CB898164
:104850009A81009711F00E943A281A8219821E82CA
:104860001D821C821B82DDCFA0E0B0E0AB2B09F4DF
:1048700045CB0E94BD01882309F43ECB0E94000075
:104880003BCB892B09F4BACC10929106109290067A
:10489000B5CC80916B0590916C05009711F00E944A
:1048A0003A2884E491E09093D7058093D6058091CF
:1048B000750290917602865D954071F4E091E9056C
:1048C000F091EA0590818091EB05809589238083A2
:1048D000109276021092750208951F93FC01992799
:1048E0008827BC01E89411911032E9F3193010F0D7
:1048F0001E30C8F31B3251F01D3249F4689406C0D3
:104900000E949424610F711D811D911D11911053FE
:104910001A30B0F33EF490958095709561957F4F75
:104920008F4F9F4F1F910895592F482F372F262FB4
:10493000660F771F881F991F660F771F881F991FA3
:10494000620F731F841F951F660F771F881F991FA3
:1049500008950E94EB2408F481E00895E89409C0CA
:1049600097FB3EF490958095709561957F4F8F4FA2
:104970009F4F9923A9F0F92F96E9BB279395F695B8
:10498000879577956795B795F111F8CFFAF4BB0F36
:1049900011F460FF1BC06F5F7F4F8F4F9F4F16C09A
:1049A000882311F096E911C0772321F09EE8872F24
:1049B000762F05C0662371F096E8862F70E060E0E0
:1049C0002AF09A95660F771F881FDAF7880F969559
:1049D000879597F90895990F0008550FAA0BE0E8FD
:1049E000FEEF16161706E807F907C0F012161306B1
:1049F000E407F50798F0621B730B840B950B39F4F1
:104A00000A2661F0232B242B252B21F408950A2656
:104A100009F4A140A6958FEF811D811D08950E9484
:104A200022250C9493250E94852538F00E948C2520
:104A300020F0952311F00C947C250C9482251124F0
:104A40000C94C7250E94A42570F3959FC1F3950F80
:104A500050E0551F629FF001729FBB27F00DB11D02
:104A6000639FAA27F00DB11DAA1F649F6627B00D92
:104A7000A11D661F829F2227B00DA11D621F739F7B
:104A8000B00DA11D621F839FA00D611D221F749F89
:104A90003327A00D611D231F849F600D211D822FD0
:104AA000762F6A2F11249F5750409AF0F1F08823F7
:104AB0004AF0EE0FFF1FBB1F661F771F881F915024
:104AC0005040A9F79E3F510580F00C947C250C9432
:104AD000C7255F3FE4F3983ED4F3869577956795B5
:104AE000B795F795E7959F5FC1F7FE2B880F911D4E
:104AF0009695879597F9089597F99F6780E870E0F4
:104B000060E008959FEF80EC089500240A94161643
:104B1000170618060906089500240A9412161306AB
:104B2000140605060895092E0394000C11F4882339
:104B300052F0BB0F40F4BF2B11F460FF04C06F5F55
:104B40007F4F8F4F9F4F089557FD9058440F551F2B
:104B500059F05F3F71F04795880F97FB991F61F0FF
:104B60009F3F79F087950895121613061406551F76
:104B7000F2CF4695F1DF08C0161617061806991FE2
:104B8000F1CF86957105610508940895E894BB27D7
:104B900066277727CB0197F908950E940F26A59FD6
:104BA000900DB49F900DA49F800D911D1124089528
:104BB0002F923F924F925F926F927F928F929F922D
:104BC000AF92BF92CF92DF92EF92FF920F931F931B
:104BD000CF93DF93CDB7DEB7CA1BDB0B0FB6F894CC
:104BE000DEBF0FBECDBF09942A88398848885F840C
:104BF0006E847D848C849B84AA84B984C884DF807D
:104C0000EE80FD800C811B81AA81B981CE0FD11D60
:104C10000FB6F894DEBF0FBECDBFED010895A29F81
:104C2000B001B39FC001A39F700D811D1124911D80
:104C3000B29F700D811D1124911D08955058BB27FE
:104C4000AA270E9436260C9493250E94852538F0C9
:104C50000E948C2520F039F49F3F19F426F40C941F
:104C600082250EF4E095E7FB0C947C25E92F0E9449
:104C7000A42558F3BA17620773078407950720F035
:104C800079F4A6F50C94C6250EF4E0950B2EBA2FF8
:104C9000A02D0B01B90190010C01CA01A001112442
:104CA000FF27591B99F0593F50F4503E68F11A16EE
:104CB000F040A22F232F342F4427585FF3CF46957F
:104CC00037952795A795F0405395C9F77EF41F16A1
:104CD000BA0B620B730B840BBAF09150A1F0FF0F6B
:104CE000BB1F661F771F881FC2F70EC0BA0F621F57
:104CF000731F841F48F4879577956795B795F79547
:104D00009E3F08F0B0CF9395880F08F09927EE0FDB
:104D10009795879508950E949F260C9493250E944D
:104D20008C2558F00E94852540F029F45F3F29F03A
:104D30000C947C2551110C94C7250C9482250E945B
:104D4000A42568F39923B1F3552391F3951B550BD3
:104D5000BB27AA2762177307840738F09F5F5F4F4E
:104D6000220F331F441FAA1FA9F335D00E2E3AF08D
:104D7000E0E832D091505040E695001CCAF72BD0A5
:104D8000FE2F29D0660F771F881FBB1F26173707F6
:104D90004807AB07B0E809F0BB0B802DBF01FF2728
:104DA00093585F4F3AF09E3F510578F00C947C2564
:104DB0000C94C7255F3FE4F3983ED4F3869577952E
:104DC0006795B795F7959F5FC9F7880F911D9695E1
:104DD000879597F90895E1E0660F771F881FBB1F3D
:104DE000621773078407BA0720F0621B730B840BEA
:104DF000BA0BEE1F88F7E09508950E94AC2588F065
:104E00009F5798F0B92F9927B751B0F0E1F0660F8E
:104E1000771F881F991F1AF0BA95C9F714C0B130CF
:104E200091F00E94C625B1E008950C94C625672F25
:104E3000782F8827B85F39F0B93FCCF386957795FE
:104E40006795B395D9F73EF49095809570956195E7
:104E50007F4F8F4F9F4F08950E94EB2408F48FEFF0
:104E600008950E94EB24880B990B0895DB018F9322
:104E70009F930E94CD25BF91AF91A29F800D911D60
:104E8000A39F900DB29F900D1124089597FB072EBC
:104E900016F4009407D077FD09D00E948A2707FCFA
:104EA00005D03EF4909581959F4F0895709561953A
:104EB0007F4F0895A1E21A2EAA1BBB1BFD010DC056
:104EC000AA1FBB1FEE1FFF1FA217B307E407F507BA
:104ED00020F0A21BB30BE40BF50B661F771F881F96
:104EE000991F1A9469F760957095809590959B012C
:104EF000AC01BD01CF010895EE0FFF1F0590F491A5
:104F0000E02D0994B7FF0C94CD250E94CD25821B7E
:104F1000930B0895AA1BBB1B51E107C0AA1FBB1F1F
:104F2000A617B70710F0A61BB70B881F991F5A9535
:104F3000A9F780959095BC01CD0108950F931F931B
:104F4000CF93DF938230910510F482E090E0E091FE
:104F5000A406F091A50630E020E0B0E0A0E0309794
:104F600099F42115310509F44AC0281B390B243066
:104F70003105D8F58A819B816115710589F1FB01A5
:104F800093838283FE0111C040815181028113818C
:104F900048175907E0F04817590799F4109761F03E
:104FA00012960C93129713961C933296CF01DF91B1
:104FB000CF911F910F9108950093A4061093A50619
:104FC000F4CF2115310551F04217530738F0A901EC
:104FD000DB019A01BD01DF01F801C1CFEF01F9CF7B
:104FE0009093A5068093A406CDCFFE01E20FF31F98
:104FF000819391932250310939832883D7CF20910F
:10500000A2063091A306232B41F420910601309192
:1050100007013093A3062093A2062091040130914A
:1050200005012115310541F42DB73EB74091080126
:1050300050910901241B350BE091A206F091A306C3
:10504000E217F307A0F42E1B3F0B2817390778F05F
:10505000AC014E5F5F4F2417350748F04E0F5F1FBE
:105060005093A3064093A206819391939FCFF0E0C3
:10507000E0E09CCFCF93DF930097E9F0FC013297FB
:1050800013821282A091A406B091A506ED0130E032
:1050900020E01097A1F420813181820F931F20918D
:1050A000A2063091A3062817390709F061C0F093D2
:1050B000A306E093A206DF91CF910895EA01CE17EF
:1050C000DF07E8F54A815B819E0141155105B1F783
:1050D000E901FB83EA8349915991C40FD51FEC176D
:1050E000FD0761F4808191810296840F951FE9018B
:1050F00099838883828193819B838A83F0E0E0E0B7
:1051000012968D919C9113970097B9F52D913C9132
:105110001197CD010296820F931F2091A206309124
:10512000A3062817390739F6309751F51092A506CE
:105130001092A406B093A306A093A206BCCFD3837B
:10514000C28340815181840F951FC817D90761F42C
:105150004E5F5F4F88819981480F591F518340836B
:105160008A819B81938382832115310509F0B0CF19
:10517000F093A506E093A4069ECFFD01DC01C0CF0D
:1051800013821282D7CFB0E0A0E0E9ECF8E20C94F1
:10519000DA258C01009751F4CB010E949E278C01E7
:1051A000C801CDB7DEB7E0E10C94F625FC01E60FAF
:1051B000F71F9C0122503109E217F30708F49DC044
:1051C000D901CD91DC911197C617D70798F0C5305A
:1051D000D10530F3CE0104978617970708F3C61B55
:1051E000D70B2297C193D1936D937C93CF010E94EB
:1051F0003A28D6CF5B01AC1ABD0A4C018C0E9D1E1D
:10520000A091A406B091A506512C412CF12CE12CC3
:10521000109731F58091A2069091A3068815990503
:1052200009F05CC04616570608F058C0809104018A
:1052300090910501009741F48DB79EB74091080108
:1052400050910901841B950BE817F90708F055C028
:10525000F093A306E093A206F90171836083A0CFC7
:105260008D919C91119712966C90129713967C9049
:105270001397A815B90559F56C0142E0C40ED11C6D
:10528000CA14DB0420F1AC014A195B09DA01129659
:10529000159780F06282738251834083D9016D93A8
:1052A0007C93E114F10471F0D7011396FC93EE9313
:1052B000129776CF22968C0F9D1FF90191838083E0
:1052C000F301EFCFF093A506E093A40669CF48164B
:1052D000590608F42C017D01D3019ACFCB010E941D
:1052E0009E277C01009749F0AE01B8010E948D29EC
:1052F000C8010E943A28870153CF10E000E050CF48
:10530000FB01DC0104C08D910190801921F4415012
:105310005040C8F7881B990B0895FB01DC0102C0BF
:1053200001900D9241505040D8F70895FC018191B1
:10533000861721F08823D9F7992708953197CF014F
:105340000895FB01DC018D91019080190110D9F3C2
:10535000990B0895FB01DC0101900D920020E1F70B
:105360000895FB01DC014150504048F001900D923E
:105370000020C9F701C01D9241505040E0F7089548
:1053800010E0CAE7D0E004C0FE010E947C2721960D
:10539000CB37D107C9F7F894FFCFFFFFFFFF00001D
:1053A000A60680005E00BC00770100000000F3014B
:1053B000530180014002B1018F01A30100000000F0
:1053C0007E0E5301780CDF0E00000000360F190F1F
:1053D000090FE00EE90E6C10761000000000790253
:1053E00053010C037802D502EB0260026E616E007D
:1053F000696E66006F7666000D0A00646174612E46
:105400006373760053442063617264206973207271
:105410006561647920746F207573652E002F0054C8
:10542000696D652C4C617469747564652C4C6F6E84
:105430006769747564652C416C7469747564652C56
:10544000536174656C6C69746520436F756E742C60
:1054500048444F502C496E736964652054656D70E3
:10546000657261747572652C4F757473696465201B
:1054700054656D7065726174757265005344206384
:1054800061726420696E697469616C697A617469BA
:105490006F6E206661696C6564004750524D430031
:1054A000474E524D4300475047474100474E4747FC
:1054B00041003A002C006572726F72206F70656E49
:0654C000696E6720000088
:107E0000112484B714BE81FFF0D085E080938100F7
:107E100082E08093C00088E18093C10086E0809377
:107E2000C20080E18093C4008EE0C9D0259A86E02C
:107E300020E33CEF91E0309385002093840096BBD3
:107E4000B09BFECF1D9AA8958150A9F7CC24DD24C4
:107E500088248394B5E0AB2EA1E19A2EF3E0BF2EE7
:107E6000A2D0813461F49FD0082FAFD0023811F036
:107E7000013811F484E001C083E08DD089C08234E0
:107E800011F484E103C0853419F485E0A6D080C0E4
:107E9000853579F488D0E82EFF2485D0082F10E0AE
:107EA000102F00270E291F29000F111F8ED06801E7
:107EB0006FC0863521F484E090D080E0DECF843638
:107EC00009F040C070D06FD0082F6DD080E0C81688
:107ED00080E7D80618F4F601B7BEE895C0E0D1E017
:107EE00062D089930C17E1F7F0E0CF16F0E7DF06D8
:107EF00018F0F601B7BEE89568D007B600FCFDCFD4
:107F0000A601A0E0B1E02C9130E011968C91119780
:107F100090E0982F8827822B932B1296FA010C0160
:107F200087BEE89511244E5F5F4FF1E0A038BF0790
:107F300051F7F601A7BEE89507B600FCFDCF97BE46
:107F4000E89526C08437B1F42ED02DD0F82E2BD052
:107F50003CD0F601EF2C8F010F5F1F4F84911BD097
:107F6000EA94F801C1F70894C11CD11CFA94CF0C13
:107F7000D11C0EC0853739F428D08EE10CD085E9AC
:107F80000AD08FE07ACF813511F488E018D01DD067
:107F900080E101D065CF982F8091C00085FFFCCF94
:107FA0009093C60008958091C00087FFFCCF809118
:107FB000C00084FD01C0A8958091C6000895E0E648
:107FC000F0E098E1908380830895EDDF803219F02E
:107FD00088E0F5DFFFCF84E1DECF1F93182FE3DFCA
:107FE0001150E9F7F2DF1F91089580E0E8DFEE27F6
:047FF000FF270994CA
:027FFE00040479
:00000001FF
